:03000000020026D5
:0C002600787FE4F6D8FD75812002006DA3
:10266B0075BA8090FE0374C0F090FE03E030E0F981
:0E267B0090FE01E4F090FE0004F0E4F5BA22B7
:101ADE00E4900060F0A3F0A31210BB000000009091
:101AEE0000661210BB0000000090006A1210BB00CE
:101AFE0000000012266B7F0A7E001226A67F0A7E49
:101B0E00001226A61226287F0A7E001226A612256D
:101B1E00E27F0A7E001226A61224327F0A7E00126F
:101B2E0026A612276A7F0A7E001226A6C2CD122290
:101B3E00A4120DA59000661210AF1226C190006A75
:101B4E001210AF90006AE0FCA3E0FDA3E0FEA3E05C
:101B5E00FF9000721210AF900066E0FCA3E0FDA3B0
:101B6E00E0FEA3E0FF12111E7B147AAE794778BF18
:101B7E00120A959000621210AF90006AE0FCA3E08A
:101B8E00FDA3E0FEA3E0FF9000721210AF90006282
:101B9E00E0FCA3E0FDA3E0FEA3E0FF122353C0068A
:101BAE00C00712197ED0E02FFFD0E03E900060F00B
:101BBE00A3EFF0900060E0FEA3E0FF9000DFEEF0F8
:101BCE00FDA3EFF09000E1CDF0A3EDF0C006C0074D
:101BDE00900062E0FCA3E0FDA3E0FEA3E0FF900016
:101BEE00701210AFD007D0061222447F087E00126A
:051BFE0026A6021B3ABF
:10268900E4FDFCC3ED9FEC9E501200000000000029
:0C26990000000000000DBD00010C80E7F7
:0126A5002212
:0426A600AB07AA06CE
:1026AA00900000C3E5829BE5839A500A7FE87E0387
:0626BA00122689A380ED49
:0126C00022F7
:1025E200E4FB7D017F0312272E7B037D027F031212
:1025F200272E75985075D7CC75D6FF758E15D2AC2F
:03260200D2AF2232
:08277F008F993099FDC29922E7
:1024A1009000F3EBF0A3EAF0A3E9F09000F3E0FB76
:1024B100A3E0FAA3E0F9120EC260179000F3A3E4BF
:1024C10075F001120F08A9F0FA120EC2FF12277F50
:0324D10080D9228D
:0300230002275F52
:0B275F00309902C299309802C29832F3
:0A277500AE07C2AC12277FD2AC22DF
:1026050090006EEFF0A3EDF01226D97FD01224D4FE
:1026150090006EE0FF1224D490006FE0FF1224D4E6
:0326250002270683
:05246C00900074EFF088
:102471001226D97FD01224D4900074E0FF1224D404
:102481001226D97FD11224D4D20012239F90007535
:0F249100EFF0D2011226F0122706900075E0FF3F
:0124A0002219
:10262800E4FD7F6B1226057D077F191226057D03C1
:102638007F1A1226057D187F1B1226057D017F1C37
:0326480002260562
:05259800900072EFF05D
:10259D0012246C900073EFF0900072E004FF12248F
:1025AD006CAD07900073E0FE7C00E42DFFEC3EFE69
:0125BD0022FB
:1026D900D281D2807F057E00122689C2817F057E44
:0726E90000122689C28022C5
:10270600C281D2807F057E00122689D2817F057E16
:04271600000226890E
:1026F000A2019281D2807F057E00122689C2807F4E
:06270000057E000226899F
:10271A00D2807F057E00122689A281C2807F057E33
:04272A0000022689FA
:0524D400900076EFF01E
:1024D900E4A3F0900076E025E0F09281D2807F05B8
:1024E9007E00122689C2807F057E0012268990000F
:0D24F90077E004F0E0C3940840D902271AF0
:10239F00E4900077F0D281900076F0900077E025FE
:1023AF00E0F0D2807F057E00122689900077E0FF53
:1023BF00A281E433FEEF4EF0C2807F057E0012262D
:1023CF0089900076E004F0E0C3940840CEA200921A
:0923DF00011226F0900077E0FFE6
:0123E80022D2
:1021D70044004C3C03126F5000243F800000000075
:1021E7000000000000003F800000500014000000C5
:1021F7000000000000000000000000000044003C58
:102207003A83126F44005C3BA3D70A4400403F0067
:0922170000004400483F80000073
:10111E0090006E1210AF900008E0F8A3E0F9A3E083
:10112E00FAA3E0FBC000C001C002C003900058E06B
:10113E00F8A3E0F9A3E0FAA3E0FB900072E0FCA3B1
:10114E00E0FDA3E0FEA3E0FF120A9190004CE0F850
:10115E00A3E0F9A3E0FAA3E0FB120B86D003D002C2
:10116E00D001D000120A959000081210AF9000081E
:10117E00E0F8A3E0F9A3E0FAA3E0FB90006EE0FC38
:10118E00A3E0FDA3E0FEA3E0FF120A919000381247
:10119E0010AF900028E0F8A3E0F9A3E0FAA3E0FB7B
:1011AE0090003CE0FCA3E0FDA3E0FEA3E0FF120AEA
:1011BE009190002CE0F8A3E0F9A3E0FAA3E0FB1273
:1011CE000A919000141210AF900030E0FCA3E0FDE5
:1011DE00A3E0FEA3E0FF120DA59000181210AF9031
:1011EE000030E0FCA3E0FDA3E0FEA3E0FF120DA59E
:1011FE0090001C1210AF90005CE0FCA3E0FDA3E099
:10120E00FEA3E0FF9000201210AF900024E0F8A3A0
:10121E00E0F9A3E0FAA3E0FBC000C001C002C003E6
:10122E0090004CE0FCA3E0FDA3E0FEA3E0FF9000E5
:10123E0014E0F8A3E0F9A3E0FAA3E0FB120B86D0CA
:10124E0003D002D001D000120A959000241210AFE4
:10125E00900028E0F8A3E0F9A3E0FAA3E0FBC000B9
:10126E00C001C002C00390004CE0FCA3E0FDA3E06F
:10127E00FEA3E0FF900018E0F8A3E0F9A3E0FAA3C4
:10128E00E0FB120B86D003D002D001D000120A95DB
:10129E009000281210AF90002CE0F8A3E0F9A3E024
:1012AE00FAA3E0FBC000C001C002C00390004CE0F6
:1012BE00FCA3E0FDA3E0FEA3E0FF90001CE0F8A37A
:1012CE00E0F9A3E0FAA3E0FB120B86D003D002D024
:1012DE0001D000120A9590002C1210AF900030E051
:1012EE00F8A3E0F9A3E0FAA3E0FBC000C001C0023E
:1012FE00C00390004CE0FCA3E0FDA3E0FEA3E0FFE2
:10130E00900020E0F8A3E0F9A3E0FAA3E0FB120BB3
:10131E0086D003D002D001D000120A959000301270
:10132E0010AF900024E0FCA3E0FDA3E0FEA3E0FFDD
:10133E00900048E0F8A3E0F9A3E0FAA3E0FB120B5B
:10134E008690000C1210AF90002CE0FCA3E0FDA3E1
:10135E00E0FEA3E0FF900048E0F8A3E0F9A3E0FA76
:10136E00A3E0FB120B869000101210AF90000CE061
:10137E00FCA3E0FDA3E0FEA3E0FF900048E0F8A38D
:10138E00E0F9A3E0FAA3E0FB120B86900040E0F830
:10139E00A3E0F9A3E0FAA3E0FB120A959000441231
:1013AE0010AF900044E0F8A3E0F9A3E0FAA3E0FB4D
:1013BE0090000CE0FCA3E0FDA3E0FEA3E0FF120C06
:1013CE008F9000501210AF900044E0F8A3E0F9A304
:1013DE00E0FAA3E0FB900010E0FCA3E0FDA3E0FE2A
:1013EE00A3E0FF120C8F9000541210AF90000CE08F
:1013FE00FCA3E0FDA3E0FEA3E0FF9000001210AFFF
:10140E00900028E0FCA3E0FDA3E0FEA3E0FF900027
:10141E0048E0F8A3E0F9A3E0FAA3E0FB120B8690F4
:10142E0000041210AF900024E0FCA3E0FDA3E0FE48
:10143E00A3E0FFC004C005C006C007900000E0FC9A
:10144E00A3E0FDA3E0FEA3E0FF900050E0F8A3E0D0
:10145E00F9A3E0FAA3E0FB120B86A804A905AA06DD
:10146E00AB07D007D006D005D004120A9190002405
:10147E001210AF900028E0FCA3E0FDA3E0FEA3E075
:10148E00FFC004C005C006C007900004E0FCA3E046
:10149E00FDA3E0FEA3E0FF900050E0F8A3E0F9A367
:1014AE00E0FAA3E0FB120B86A804A905AA06AB0777
:1014BE00D007D006D005D004120A91900028121041
:1014CE00AF90002CE0FCA3E0FDA3E0FEA3E0FFC084
:1014DE0004C005C006C007900000E0FCA3E0FDA319
:1014EE00E0FEA3E0FF900054E0F8A3E0F9A3E0FAD9
:1014FE00A3E0FB120B86A804A905AA06AB07D0072A
:10150E00D006D005D004120A9190002C1210AF9084
:10151E000030E0FCA3E0FDA3E0FEA3E0FFC004C0AA
:10152E0005C006C007900004E0FCA3E0FDA3E0FEAA
:10153E00A3E0FF900054E0F8A3E0F9A3E0FAA3E0E3
:10154E00FB120B86A804A905AA06AB07D007D00686
:10155E00D005D004120A919000301210AF900008FE
:10156E00E0F8A3E0F9A3E0FAA3E0FBC000C001C0DD
:10157E0002C003900038E0FCA3E0FDA3E0FEA3E070
:10158E00FF900050E0F8A3E0F9A3E0FAA3E0FB120D
:10159E000B86D003D002D001D000120A959000081D
:1015AE001210AF900058E0F8A3E0F9A3E0FAA3E020
:1015BE00FBC000C001C002C003900038E0FCA3E0F5
:1015CE00FDA3E0FEA3E0FF900054E0F8A3E0F9A332
:1015DE00E0FAA3E0FB120B86D003D002D001D000BC
:1015EE00120A959000581210AF900058E0F8A3E040
:1015FE00F9A3E0FAA3E0FB900072E0FCA3E0FDA3E8
:10160E00E0FEA3E0FF120A919000341210AF90009A
:0D161E0008E0FCA3E0FDA3E0FEA3E0FF2236
:061D25009000B11210AFA6
:101D2B009000BAE0FCA3E0FDA3E0FEA3E0FF90006F
:101D3B00B61210AF9000BEE0FCA3E0FDA3E0FEA343
:101D4B00E0FF9000BA1210AF9000C2E0FCA3E0FDE0
:101D5B00A3E0FEA3E0FF9000BE1210AF9000C6E020
:101D6B00FCA3E0FDA3E0FEA3E0FF9000C21210AFC6
:101D7B009000B1E0FCA3E0FDA3E0FEA3E0FF900028
:101D8B00C61210AF9000BAE0FCA3E0FDA3E0FEA3E7
:101D9B00E0FF9000B6E0F8A3E0F9A3E0FAA3E0FBC4
:101DAB00120A959000BEE0F8A3E0F9A3E0FAA3E0D5
:101DBB00FB120A959000C2E0F8A3E0F9A3E0FAA3A6
:101DCB00E0FB120A959000C6E0F8A3E0F9A3E0FA55
:101DDB00A3E0FB120A95E4FBFA79A07840020C8F82
:101F47009000CA1210AF9000CEEBF0A3EAF0A3E91D
:011F5700F099
:101F58009000D51210BB3F7AE1487FA67E9B7DC4D6
:101F68007C3B9000D1E0F8A3E0F9A3E0FAA3E0FB02
:101F7800120B869000CEE0FBA3E0FAA3E0F9121062
:101F88008F120A959000D5E0F8A3E0F9A3E0FAA330
:101F9800E0FB120B86C004C005C006C0079000D540
:101FA800E0F8A3E0F9A3E0FAA3E0FBE4FFFE7D80FC
:101FB8007C3F120A919000CAE0F8A3E0F9A3E0FA86
:101FC800A3E0FB120B86D003D002D001D000120A86
:0F1FD800959000CEE0FBA3E0FAA3E0F9021049D8
:1022A4007F3B12259890006EEEF0A3EFF07F3F1273
:1022B4002598900070EEF0A3EFF090006EE0FCA380
:1022C400E0FDEC120DBBC004C005C006C0079000C1
:1022D40070E0FCA3E0FDEC120DBBA804A905AA065E
:1022E400AB07D007D006D005D004120C8F121C23E4
:0B22F4007B337A3379657842020B8659
:1026C1007F45122598AD07AC06EC120DBB7B337A22
:0826D1003379837841020C8F7C
:0623530090006E1210AFB5
:10235900E4FFFE7D187C42900072E0F8A3E0F9A347
:10236900E0FAA3E0FB120B86C004C005C006C00753
:10237900E4FFFE7DA57C4490006EE0F8A3E0F9A39C
:10238900E0FAA3E0FB120B86D003D002D001D00003
:06239900120A95020DF48A
:10224400C3EE64809480400AC2A3D2A1D2A5C2A6E0
:10225400D202C3EE64809480500AD2A3C2A1C2A564
:10226400D2A6C202E4FFFE7D207C42900070E0F81A
:10227400A3E0F9A3E0FAA3E0FB120D2C501CE4FF49
:10228400FE7D207CC2900070E0F8A3E0F9A3E0FAA0
:10229400A3E0FB120D2C60025003C2A422D2A4229C
:10273F00E4F589758AEC758CFFD28CD2A9D2AF22C1
:03000B00021FE7EA
:101FE700C0E0C083C082C0D075D000C000C006C0AA
:101FF700079000DAE004F070069000D9E004F09052
:1020070000D9E0B4032DA3E0B4E8289000D9E4F0A8
:10201700A3F0A3E0FEA3E0FFD39400EE64809480D6
:102027004004A3EE8009C3E49FFFE49E9000DDF027
:10203700A3EFF09000DDE0FEA3E0FFD39000DAE02D
:102047009FEE6480F89000D9E06480985006D2A093
:10205700D2A78004C2A0C2A7D007D006D000D0D094
:07206700D082D083D0E032EB
:1024320075BA8090FFF2740FF090FFF0744EF0A323
:102442007420F090FF00E4F0A3F0A3F0A3F0A374D3
:1024520080F090FF70E4F0A3F0A3F0A3F0A37480E7
:0A246200F0E4F5BA75FEC0D2AF2217
:0300B300022166C1
:10216600C0E0C083C082C0D075D000C006C007E5FD
:10217600F130E75053F17FC0BA43BA809000DFE0F8
:10218600FEA3E0FFC3EE64809480400690FF00EE5D
:102196008009C3E49FFFE49E90FF00F0A3EFF09058
:1021A60000E1E0FEA3E0FFC3EE6480948040069069
:1021B600FF70EE8009C3E49FFFE49E90FF70F0A3DA
:1021C600EFF0D0BAD007D006D0D0D082D083D0E0FE
:0121D60032D6
:10162B00EFD3940540037F0122120EC2FED3940325
:10163B0040037F0222EF7041EE700B900001120EFF
:10164B00DBF452935294120EC2B4010B90000112B0
:10165B000EDB4293F45294120EC2FEB4020A9000B7
:10166B0001120EDB42934294EEB4030D9000011273
:10167B000EDBFEF45293EE4294EF64017043120EB4
:10168B00C2FE700B900001120EDBF452915292EEDF
:10169B00B4010B900001120EDB4291F45292120E28
:1016AB00C2B4020A900001120EDB42914292120E5A
:1016BB00C2B4030D900001120EDBFEF45291EE4208
:1016CB0092EF64027043120EC2FE700B9000011277
:1016DB000EDBF452955296EEB4010B900001120EF4
:1016EB00DB4295F45296120EC2B4020A900001121C
:1016FB000EDB42954296120EC2B4030D90000112FE
:10170B000EDBFEF45295EE4296EF64037043120E1D
:10171B00C2FE700B900001120EDBF452B152B2EE0E
:10172B00B4010B900001120EDB42B1F452B2120E57
:10173B00C2B4020A900001120EDB42B142B2120E89
:10174B00C2B4030D900001120EDBFEF452B1EE4257
:10175B00B2EF64047043120EC2FE700B90000112C4
:10176B000EDBF452B352B4EEB4010B900001120E27
:10177B00DB42B3F452B4120EC2B4020A900001124F
:10178B000EDB42B342B4120EC2B4030D9000011231
:10179B000EDBFEF452B3EE42B4EF64057043120E4F
:1017AB00C2FF700B900001120EDBF452C952CAEF4C
:1017BB00B4010B900001120EDB42C9F452CA120E97
:1017CB00C2B4020A900001120EDB42C942CA120EC9
:1017DB00C2B4030D900001120EDBFFF452C9EF42AD
:0417EB00CA7F00228F
:10272E0090006EEBF0A3EDF07B017A00796E02164D
:01273E002B6F
:1000B6000000000000000000002F00000000070004
:1000C600070000147F147F1400242A7F2A1200627E
:1000D600640813230036495522500000050300002A
:1000E60000001C224100000041221C000014083EB2
:1000F60008140008083E0808000000A06000000878
:1001060008080808000060600000002010080402CB
:10011600003E5149453E0000427F40000042615189
:100126004946002141454B31001814127F10002723
:1001360045454539003C4A494930000171090503E6
:1001460000364949493600064949291E0000363617
:10015600000000005636000000081422410000147A
:100166001414141400004122140800020151090657
:1001760000324959513E007C1211127C007F4949D8
:100186004936003E41414122007F4141221C007F09
:1001960049494941007F09090901003E4149497A17
:1001A600007F0808087F0000417F41000020404191
:1001B6003F01007F08142241007F40404040007FFD
:1001C600020C027F007F0408107F003E4141413E41
:1001D600007F09090906003E4151215E007F091989
:1001E60029460046494949310001017F0101003F86
:1001F6004040403F001F2040201F003F4038403F06
:100206000063140814630007087008070061514969
:10021600454300007F41410000552A552A550000FC
:1002260041417F000004020102040040404040407A
:10023600000001020400002054545478007F484412
:10024600443800384444442000384444487F003849
:100256005454541800087E0901020018A4A4A47C72
:10026600007F080404780000447D4000004080843C
:100276007D00007F102844000000417F4000007C84
:1002860004180478007C0804047800384444443890
:1002960000FC242424180018242418FC007C0804DC
:1002A600040800485454542000043F444020003CB5
:1002B6004040207C001C2040201C003C4030403C3C
:1002C600004428102844001CA0A0A07C00446454CC
:1002D6004C44141414141414000000000000000010
:1002E6000000000000000000000000F80000000010
:1002F600000000333000000000100C06100C060051
:10030600000000000000000040C07840C0784000B7
:10031600043F04043F040400007088FC0830000019
:10032600001820FF211E0000F008F000E018000071
:1003360000211C031E211E0000F00888700000002A
:100346001E2123241927211010160E00000000007C
:100356000000000000000000000000E01804020099
:10036600000000071820400000020418E00000000A
:100376000040201807000000404080F08040400008
:100386000202010F01020200000000F0000000005E
:100396000101011F01010100000000000000000032
:1003A60080B07000000000000000000000000000A7
:1003B6000001010101010101000000000000000030
:1003C60000303000000000000000000080601804CB
:1003D600006018060100000000E010080810E000A8
:1003E600000F102020100F00001010F80000000071
:1003F6000020203F202000000070080808887000B8
:100406000030282422213000003008888848300037
:100416000018202020110E000000C02010F8000057
:1004260000070424243F240000F8088888080800F0
:100436000019212020110E0000E010888818000005
:10044600000F112020110E0000380808C8380800D7
:100456000000003F00000000007088080888700057
:10046600001C222121221C0000E010080810E000D8
:100476000000312222110F00000000C0C000000061
:100486000000003030000000000000800000000086
:10049600000080600000000000008040201008007E
:1004A6000001020408102000404040404040400047
:1004B6000404040404040400000810204080000022
:1004C6000020100804020100007048080808F00027
:1004D6000000003036010000C030C828E810E000F7
:1004E6000718272423140B000000C038E000000082
:1004F600203C23020227382008F8888888700000EC
:10050600203F202020110E00C030080808083800BF
:10051600071820202010080008F808080810E00036
:10052600203F202020100F0008F88888E8081000D7
:10053600203F20202320180008F88888E8081000AB
:10054600203F200003000000C030080808380000E3
:1005560007182020221E020008F808000008F808E4
:10056600203F210101213F20000808F8080800006B
:100576000020203F2020000000000808F80808009E
:10058600C08080807F00000008F888C02818080016
:10059600203F20012638200008F80800000000004F
:1005A600203F20202020300008F8F800F8F8080046
:1005B600203F003F003F200008F830C00008F80840
:1005C600203F200007183F00E01008080810E00050
:1005D6000F10202020100F0008F808080808F00067
:1005E600203F210101010000E01008080810E0008A
:1005F6000F18242438504F0008F88888888870001F
:10060600203F2000030C30200070880808083800BE
:100616000038202121221C00180808F808081800B4
:100626000000203F2000000008F808000008F80835
:10063600001F202020201F000878880000C83808E6
:10064600000007380E010000F80800F80008F8005E
:10065600033C0700073C03000818688080681808F8
:1006660020302C03032C30200838C800C838080076
:100676000000203F2000000010080808C8380800C5
:100686002038262120201800000000FE0202020069
:100696000000007F40404000000C30C00000000019
:1006A600000000010638C00000020202FE00000041
:1006B600004040407F0000000000040202020400E7
:1006C6000000000000000000000000000000000024
:1006D600808080808080808000020204000000000C
:1006E6000000000000000000000080808080000004
:1006F6000019242222223F2008F8008080000000F2
:10070600003F112020110E000000008080800000B4
:10071600000E112020201100000000808088F800C3
:10072600000E112020103F200000808080800000F5
:10073600001F222222221300008080F08888881859
:100746000020203F20200000000080808080800064
:10075600006B94949493600008F8008080800000F9
:10076600203F210000203F200080989800000000D4
:100776000020203F20200000000000809898000004
:1007860000C08080807F000008F800008080800024
:10079600203F24022D302000000808F80000000049
:1007A6000020203F20200000808080808080800004
:1007B600203F20003F20003F808000808080000096
:1007C600203F210000203F20000080808080000024
:1007D600001F202020201F00808000808000000055
:1007E60080FFA12020110E00000000808080800084
:1007F600000E112020A0FF80808080008080800075
:1008060020203F21200001000000808080808000A1
:100816000033242424241900008080E08080000016
:100826000000001F20200000808000000080800063
:10083600001F202020103F208080800000808080C4
:1008460000010E3008060100808000800080808054
:100856000F300C030C300F00008080008080800079
:100866000020312E0E3120008080800000808080A4
:1008760080818E7018060100008080808080800054
:100886000021302C2221300000000000807C020272
:1008960000000000003F404000000000FF00000094
:1008A60000000000FF0000000002027C8000000043
:1008B6000040403F0000000000060101020204045F
:1008C60000000000000000000000F010101010FFF3
:1008D60010101010F00000000000000000000000E2
:1008E600000000000000000000000F04040404FFE4
:1008F600040404040F0000000000000000000000D3
:1009060000000000000000004040405F555555754E
:100916005555555F404040000000000000000000B3
:1009260000000000000000000040200F09498979FE
:100936000909090F20400000000000000000000027
:10094600000000000000000000FE02424ACA4A4AB7
:10095600CA4A4A4202FE00000000000000000000F1
:10096600000000000000000000FF40504C434040E3
:100976004F50505C40FF00000000000000000000E7
:1009860000000000000000000000F888888888FF4A
:1009960088888888F8000000000000000000000039
:1009A600000000000000000000001F080808087F83
:1009B600888888889F80F000000000000000000002
:1009C600000000000000000080828282828282E2B3
:1009D600A2928A868280800000000000000000004B
:1009E6000000000000000000000000000040807FC2
:1009F60000000000000000000000000000000000F1
:100A060000000000000000002424A4FEA32200220F
:100A1600CC0000FF00000000000000000000000005
:100A26000000000000000000080601FF00010404A9
:100A3600040404FF0202020000000000000000009F
:100A46000000000000000000101010FF1090088841
:100A56008888FF88888808000000000000000000E1
:100A660000000000000000000444827F01808040F6
:100A7600432C102846818000000000000000000082
:080A8600000000000000000068
:05256A0012256FE4FFE3
:10256F00ED6004D2848002C284C283E4FEC287EF8E
:10257F0030E704D2868002C286D287EF25E0FF0EB5
:08258F00EEB408E9D283D28406
:012597002221
:10264B00AC07ED24B0FFE4FD12256FEC54F0C4543D
:10265B000F4410FF12256FEC540F4401FF02256F3E
:1025BE00E4FCEC24B0FFE4FD12256A7F1012256FB7
:1025CE00E4FB7D01E4FF12256F0BEBB480F40CEC01
:0325DE00B408DF5F
:0125E10022D7
:0823E900900083EFF0A3EDF07A
:1023F100A31210BB00000001900084E0FF14F0EF75
:102401006020A3E0F8A3E0F9A3E0FAA3E0FB9000C9
:1024110083E0FFE4FCFDFE120F1E9000851210AF59
:1024210080D6900085E0FCA3E0FDA3E0FEA3E0FFE1
:012431002288
:081DEB00900078EFF0A3EDF089
:101DF300E4900082F0900080F090007EE0FF90007D
:101E030080E0FEC39F4003021E9DC3EF9E14FD7F2F
:101E13000A1223E9A804A905AA06AB0790007AE0F1
:101E2300FCA3E0FDA3E0FEA3E0FF120FA9E47B0AFD
:101E3300FAF9F8120FA9900081EBF0A3E07030904B
:101E4300007EE014FF900080E0FEC39F5021A3E0DA
:101E5300701790007FE0C3138EF0A4FF900078E02A
:101E63002FFFA3E0FD7B2080259000827401F0907A
:101E7300007FE0C313FFA3E0FEEF8EF0A4FF90000A
:101E830078E02FFFA3E0FD900081E02430FB1220D7
:0A1E9300F0900080E004F0021DFC56
:011E9D002222
:0620F000AA07A905AF03D9
:1020F600E4FCEF24E0FBEAD3947F4004E4FA090908
:10210600AF02AD0112264BE4FC75F010EBA42CF5E2
:1021160082E435F0F583E58224DEF582E583340238
:10212600F583E493FF7D0112256F0CECB408DAAF5A
:1021360002E904FD12264BE4FC75F010EBA42CF525
:1021460082E435F0F583E58224E6F582E583340200
:10215600F583E493FF7D0112256F0CECB408DA22B7
:1022FF009000EDEFF0A3EDF0A3EBF0A3EAF0A3E96C
:01230F00F0DD
:10231000E4A3F09000EFE0FBA3E0FAA3E0F9A3E070
:10232000F582758300120EDBFB60279000EDE0FF65
:10233000A3E0FD1220F09000EDE02408F0E0D3943B
:10234000784007E4F0A3E02402F09000F2E004F00B
:0223500080C14A
:012352002268
:101E9E00D2857F647E001226A6C2857F647E0012E4
:101EAE0026A6D285E4FD7FAE12256A7F1012256F1D
:101EBE007F4012256F7F8112256F7FCF12256F7F96
:101ECE00A112256F7FC812256F7FA612256F7FA8DE
:101EDE0012256F7F3F12256F7FD312256A7FD51291
:101EEE00256F7F8012256F7FD912256F7FF1122506
:101EFE006F7FDA12256F7F1212256F7FDB12256F2F
:101F0E007F4012256F7F2012256F7F0212256F7F73
:101F1E008D12256F7F1412256F7FA412256F7FA659
:101F2E0012256F7FAF12256F7FAF12256F1225BE60
:091F3E00E4FDFF12264B02274FBF
:10274F00E4F589758BCB758D7DD28ED2ABD2AF224E
:03001B0002206E52
:10206E00C0E0C0F0C083C082C0D075D000C000C038
:10207E0001C002C003C004C005C006C0079000AD79
:10208E00E0FEA3E0FFEE3395E0FDFC90007A121027
:10209E00AF90007E7404F0A37410F0E4FD7F0A127A
:1020AE001DEB9000AFE0FEA3E0FFEE3395E0FDFCEC
:1020BE0090007A1210AF90007E7404F0A37410F0AA
:1020CE007D027F0A121DEBD007D006D005D004D0BA
:1020DE0003D002D001D000D0D0D082D083D0F0D0A7
:0220EE00E032DE
:102220004400AD00000000440089000000004400AC
:102230008D00000000440091000000004400950063
:032240000000009B
:0B276A00C288D2A8C28AD2AAD2AF2235
:03000300022506CD
:10250600C0E0C083C082C0D03002109000AEE004AC
:10251600F070169000ADE004F0800E9000AEE0245E
:10252600FFF09000ADE034FFF0D0D0D082D083D061
:02253600E03291
:030013000225388B
:10253800C0E0C083C082C0D03002109000B0E00478
:10254800F070169000AFE004F0800E9000B0E02428
:10255800FFF09000AFE034FFF0D0D0D082D083D02D
:02256800E0325F
:10197E009000AFE0FEA3E0FF9000AEE02FFD9000E0
:10198E00ADE03EFC120DBB7BCD7ACC794C783F128C
:10199E000B869000951210AFE49000AFF0A3F0907C
:1019AE0000ADF0A3F0900089E0FCA3E0FDA3E0FE03
:1019BE00A3E0FF7BCD7ACC794C783F120B8690005A
:1019CE00891210AF900089E0F8A3E0F9A3E0FAA322
:1019DE00E0FBC000C001C002C0037FCD7ECC7DCC39
:1019EE007C3E900095E0F8A3E0F9A3E0FAA3E0FBBB
:1019FE00120B86D003D002D001D000120A959000AF
:101A0E00891210AF90008DE0FCA3E0FDA3E0FEA3D1
:101A1E00E0FF900089E0F8A3E0F9A3E0FAA3E0FB71
:101A2E00120A9590008D1210AF7F007EC07D5A7CF9
:101A3E004590008DE0F8A3E0F9A3E0FAA3E0FB12D5
:101A4E000D2C600C400A90008D1210BB455AC00040
:101A5E007F007EC07D5A7CC590008DE0F8A3E0F932
:101A6E00A3E0FAA3E0FB120D2C500A90008D121089
:101A7E00BBC55AC000E4FFFE7D207C43900089E088
:101A8E00F8A3E0F9A3E0FAA3E0FB120B86C004C0B2
:101A9E0005C006C0077F337E337D737C3F90008D7B
:101AAE00E0F8A3E0F9A3E0FAA3E0FB120B86D00363
:101ABE00D002D001D000120A959000911210AF9072
:101ACE000091E0FCA3E0FDA3E0FEA3E0FF020DF415
:0C17EF009000E3EEF0A3EFF0AB05AA04BD
:1017FB00A31210BB410000009000E91210BB3D2367
:10180B00D70A9000E4E02BFD9000E3E03AFC120DC8
:10181B00BB90009D1210AF9000A1E0FCA3E0FDA3D4
:10182B00E0FEA3E0FF7433FBFAF9783F120B8690CE
:10183B0000A11210AF9000A1E0F8A3E0F9A3E0FA29
:10184B00A3E0FBC000C001C002C0037F9A7E997D5C
:10185B00997C3E90009DE0F8A3E0F9A3E0FAA3E0A9
:10186B00FB120B86D003D002D001D000120A959048
:10187B0000A11210AF9000A9E0FCA3E0FDA3E0FED5
:10188B00A3E0FF9000A1E0F8A3E0F9A3E0FAA3E046
:10189B00FB120A959000A91210AF9000A9E0FCA3CF
:1018AB00E0FDA3E0FEA3E0FF9000A5E0F8A3E0F9C4
:1018BB00A3E0FAA3E0FB120A919000A91210AF7FEC
:1018CB00007E407D1C7C469000A9E0F8A3E0F9A3C4
:1018DB00E0FAA3E0FB120D2C600C400A9000A91259
:1018EB0010BB461C40007F007E407D1C7CC69000D8
:1018FB00A9E0F8A3E0F9A3E0FAA3E0FB120D2C504A
:10190B000A9000A91210BBC61C40009000E9E0FC35
:10191B00A3E0FDA3E0FEA3E0FF9000A9E0F8A3E0A5
:10192B00F9A3E0FAA3E0FB120B86C004C005C006C6
:10193B00C0079000E5E0FCA3E0FDA3E0FEA3E0FF01
:10194B009000A1E0F8A3E0F9A3E0FAA3E0FB120BEF
:10195B0086D003D002D001D000120A9590009912C4
:10196B0010AF900099E0FCA3E0FDA3E0FEA3E0FF25
:03197B00020DF466
:100A8E00020E60E86480F8E933E83360110460F028
:100A9E00ED33EC337009E8FCE9FDEAFEEBFF2204CE
:100AAE0060DED3EB9FEA9EE99DE8C2E78CF0C2F7C9
:100ABE0095F0400CE8CCF8E9CDF9EACEFAEBCFFB95
:100ACE00120E2B85D0F05804700320D5B3E80470B5
:100ADE00075002B2D5020E6A92D5EC0460F7E4CC50
:100AEE00C0E0C398F8603B94186008400DD0E0FB5E
:100AFE00020E42E4FBFAC9FC8028E830E406E4C9A1
:100B0E00FBE4CAFCE830E305E4C9CACBFCE85407B1
:100B1E006010F8C3E913F9EA13FAEB13FBEC13FCBC
:100B2E00D8F130F52FC3E49CFCEF9BFFEE9AFEED5F
:100B3E0099FDD0E0FBEF4E4D4C701222DB03020EFE
:100B4E0067EC2CFCEF33FFEE33FEED33FDED30E7BB
:100B5E00EB020E42EF2BFFEE3AFEED39FDD0E0FB3D
:100B6E0050130BBB0003020E6AED13FDEE13FEEFE6
:080B7E0013FFEC13FC020E4210
:100B8600EC4D6011E8497017ED33EC3304600DE469
:100B9600FCFFFEFD22E933E8330470F8020E601212
:100BA6000E2B58046009E4CC248150062850090213
:100BB6000E6A284003020E67C0E0EB4A7044B98013
:100BC60006D0E0FB020E56EF4E701CBD8008EBFF10
:100BD600EAFEE9FD80EBE98DF0A4FEE5F0020C6F7C
:100BE600E9CDF9EAFEEBFFEF89F0A4FCE5F0CE894A
:100BF600F0A42EFFE435F0CD89F0A42DFEE435F007
:100C06008067EF4E7005BD80D780C3EF8BF0A4AC34
:100C1600F0EE8BF0A42CFCE435F0F8EF8AF0A42C6F
:100C2600E5F038FCE433CB8DF0A42CFCE5F03BF882
:100C3600EE8AF0A42CFCE5F038F8E433CF89F0A472
:100C46002CFCE5F038CF3400CE89F0A42FFFE5F078
:100C56003EFEE433C98DF0A42EFEE5F039CD8AF0D0
:100C6600A42FFFE5F03EFEE43DFD33D0E0FB500748
:100C76000BBB000F020E6AEC2CFCEF33FFEE33FECB
:060C8600ED33FD020E42F9
:100C8C00020E6AEC5D046005E859047003020E6004
:100C9C00120E2B580460F6EC4860F2EC7004FDFE6A
:100CAC00FF22C860DB2481C85009C398600250063B
:100CBC00020E679850CAF582E9294B4A7005AB823F
:100CCC00020E5675F0007C1A7880C3EF9BEE9AEDFD
:100CDC0099400DC3EF9BFFEE9AFEED99FDE842F0B3
:100CEC00DC23ACF0D0E0FFD0E0FED0E0FDAB822006
:100CFC00E7101BEB60BAEC2CFCEF33FFEE33FEED90
:100D0C0033FD020E42E803F830E705C0F075F00041
:100D1C00EF2FFFEE33FEED33FD40B830E7C280AA73
:100D2C0074F8CC6480CCC86480C8F58204604FC36E
:100D3C00EB9FF5F0EA9E42F0E99D42F0E89C45F00D
:100D4C00603C501DE5825FFFE582D313CB5BCBF497
:100D5C002B5582FB50280ABA002409B900200880C0
:100D6C001DE5825BFBE582D313CF5FCFF4C3132F5A
:100D7C005582FF50090EBE00050DBD00010CC3EBE2
:100D8C009FF5F0EA9E42F0E99D42F0E89C45F06048
:090D9C0007CC4820E701B3EC226A
:100DA500ED33EC33600A047003BD8004ECB2E7FC5C
:010DB500221B
:100DB60075F020800E75F010800575F0087D007EB8
:100DC600007F003392D530D50312103BEC33401030
:100DD600EF33FFEE33FEED33FDEC33FCD5F0ED22C1
:0E0DE600E5F0247EA2D513CC92E7CDCEFF22FD
:100DF400EDD2E7CD33EC3392D524814006E4FFFEF7
:100E0400FDFC22FCE4CFCECDCC24E0501174FF8055
:100E1400EDC3CC13CCCD13CDCE13CECF13CF0470F2
:070E2400F030D5DE02103BA7
:101C0300BE1249253E4CCCCDBEAAAAAB3F800000F4
:101C13003E7ADBB03EED63383F24BC7D3F490FDBAA
:101C2300ED33ECC2E7CC339200B4FF13ED547F6085
:101C330003020E607FDB7E0F7DC97C3F021D18C24D
:101C430001C3947F401E7007EDD2E794904015EFD7
:101C5300FBEEFAEDF9ECF87F007E007D807C3F120D
:101C63000C8FD201ED33EC33248430E705E4C0E07C
:101C7300806B04FAEDD2E754F0C333DAFD54073432
:101C8300002323C0E0CCC0E0F8EDC0E0F9EEC0E0F3
:101C9300FAEFC0E0FBE4120DC0EC24FEFC900072EE
:101CA3001210AF120B867B007A007980783F120AFC
:101CB30095900072E0B2E7CCF0A3E0CDF0A3E0CEC4
:101CC300F0A3E0CFF0D0E0FBD0E0FAD0E0F9D0E031
:101CD300F8120A95900072121073120C8F90007212
:101CE3001210AF901C037403120E75900072121041
:101CF30073120B86D0E0600F240FF582E4341CF5D9
:101D03008312107F120A9530010B7BDB7A0F79C99E
:101D130078BF120A95ED33EC336006ECA20092E72C
:021D2300FC22A0
:100E2B00E9D2E7C933E833F892D5EDD2E7CD33EC0D
:070E3B0033FC5002B2D52286
:100E4200EC30E7100FBF000C0EBE00080DBD000411
:100E52000BEB6014A2D5EB13FCED92E7FD2274FFBD
:100E6200FCFDFEFF22E480F8A2D574FF13FC7D8016
:030E7200E480EF2A
:100E7500C0E0EFFBEEFAEDF9ECF8120B86D0E0F5E9
:100E8500F0EFFBEEFAEDF9ECF8121063A3A3A3A3C0
:100E9500E8C0E0E9C0E0EAC0E0EBC0E0C0F0120B5A
:100EA5008612107FA3A3A3A3120A95D0F0D0E0FB6E
:0D0EB500D0E0FAD0E0F9D0E0F8D5F0D4227A
:10003200021ADEE493A3F8E493A34003F68001F2EC
:1000420008DFF48029E493A3F85407240CC8C333CF
:10005200C4540F4420C8834004F456800146F6DF9E
:10006200E4800B01020408102040809021D7E47E36
:10007200019360BCA3FF543F30E509541FFEE49393
:10008200A360010ECF54C025E060A840B8E493A35A
:10009200FAE493A3F8E493A3C8C582C8CAC583CA85
:1000A200F0A3C8C582C8CAC583CADFE9DEE780BE3D
:01224300009A
:100EC200BB010689828A83E0225002E722BBFE022E
:090ED200E32289828A83E4932261
:100EDB00BB010CE58229F582E5833AF583E02250CC
:100EEB0006E92582F8E622BBFE06E92582F8E22216
:0D0EFB00E58229F582E5833AF583E4932230
:100F0800A3F8E0C5F025F0F0E5821582700215839C
:060F1800E0C838F0E822F9
:100F1E00E88FF0A4CC8BF0A42CFCE98EF0A42CFC72
:100F2E008AF0EDA42CFCEA8EF0A4CDA8F08BF0A4F0
:100F3E002DCC3825F0FDE98FF0A42CCD35F0FCEB4F
:100F4E008EF0A4FEA9F0EB8FF0A4CFC5F02ECD3914
:0F0F5E00FEE43CFCEAA42DCE35F0FDE43CFC2281
:100F6D0075F008758200EF2FFFEE33FECD33CDCC3B
:100F7D0033CCC58233C5829BED9AEC99E5829840BE
:100F8D000CF582EE9BFEED9AFDEC99FC0FD5F0D69B
:100F9D00E4CEFBE4CDFAE4CCF9A88222B800C1B9C5
:100FAD000059BA002DEC8BF084CFCECDFCE5F0CB03
:100FBD00F97818EF2FFFEE33FEED33FDEC33FCEB3C
:100FCD0033FB10D703994004EB99FB0FD8E5E4F9F7
:100FDD00FA227818EF2FFFEE33FEED33FDEC33FCE4
:100FED00C933C910D7059BE99A4007EC9BFCE99AD8
:100FFD00F90FD8E0E4C9FAE4CCFB2275F010EF2F1D
:10100D00FFEE33FEED33FDCC33CCC833C810D7071C
:10101D009BEC9AE899400AED9BFDEC9AFCE899F857
:0E102D000FD5F0DAE4CDFBE4CCFAE4C8F922EA
:0E103B00C3E49FFFE49EFEE49DFDE49CFC22C6
:10104900BB010789828A830210AF5005E9F80211B2
:0A10590006BBFE05E9F802111222A1
:10106300E493FC740193FD740293FE740393FF22D3
:0C107300E0F8A3E0F9A3E0FAA3E0FB2200
:10107F00E493F8740193F9740293FA740393FB22C7
:10108F00BB010789828A830210735005E9F80210A9
:10109F00ECBBFE05E9F80210F989828A8302107F02
:0C10AF00ECF0A3EDF0A3EEF0A3EFF022B4
:1010BB00A8828583F0D083D0821210D21210D21264
:1010CB0010D21210D2E473E493A3C583C5F0C58389
:1010DB00C8C582C8F0A3C583C5F0C583C8C582C87F
:0110EB0022E2
:0D10EC00E6FB08E6F908E6FA08E6CBF82274
:0D10F900E2FB08E2F908E2FA08E2CBF82277
:0C110600ECF608EDF608EEF608EFF62215
:0C111200ECF208EDF208EEF208EFF22219
:00000001FF
